:100000000C9494000C94B1000C94B1000C94B100C9
:100010000C94B1000C94B1000C94B1000C94B1009C
:100020000C94B1000C94B1000C94B1000C94B1008C
:100030000C94B1000C94B1000C94E3000C94B1004A
:100040000C94B1000C94B1000C94B40C0C942B0DD6
:100050000C94110D0C94DA010C94B1000C94B100C5
:100060000C9483100C94B1008A070E08F007EC077B
:1000700087071C08170813084C0AFB098E0AAC09ED
:100080008809E308DC09CA10981098109810981095
:10009000981098109810CA109810981098109810EE
:1000A000981098109810CC109810981098109810DC
:1000B000981098109810F3109810981098109810A5
:1000C000981098109810CC109810981098109810BC
:1000D000981098109810F310981098109810981085
:1000E000981098109810FB1098109810981098106D
:1000F000981098109810BC1098109810981098109C
:10010000981098109810F310981098109810981054
:10011000981098109810B010981098109810981087
:10012000981098109810FF1011241FBECFEFD8E040
:10013000DEBFCDBF11E0A0E0B1E0EAE6F3E202C02D
:1001400005900D92A239B107D9F714E0A2E9B1E008
:1001500001C01D92A531B107E1F70E9425080C945A
:10016000B3110C940000FC01808170E0680F711DD8
:1001700081816C33710558F08F5F01C0892F6C53FA
:10018000710991E0980F6C337105C0F7818360832A
:1001900092818C3350F09F5F01C0922F8C5321E0ED
:1001A000290F8C33D0F781839283983158F08BEAF2
:1001B000989F812D112482958F7028E1829F90193C
:1001C0001124928308951F920F920FB60F9211245B
:1001D0002F933F934F935F936F937F938F939F934F
:1001E000AF93BF93EF93FF938091F00380FF05C01F
:1001F0008091A30181608093A3018091F0038F5FC0
:100200008093F0038A3008F47DC01092F00380914F
:100210009A0190919B01019690939B0180939A0182
:1002200080919601882319F08150809396018091E6
:100230009C018370813009F47EC080E090E0FC0175
:10024000EE0FFF1FDF01A254BC4F2D913C9111977F
:10025000232B41F02D913C9111972150310911969A
:100260003C932E93DF01A752BE4F2D913C911197E5
:10027000232B41F02D913C9111972150310911967A
:100280003C932E93E80FF91FEE0FFF1FE553FC4F31
:1002900021813281232B31F021813281215031099A
:1002A0003283218301968430910549F6809145027D
:1002B00090914602892B49F0809145029091460227
:1002C000019790934602809345028091E1019091BD
:1002D000E201892B49F08091E1019091E2010197BF
:1002E0009093E2018093E10180919D018F5F809363
:1002F0009D01909106019817B0F08091A301826052
:100300008093A301FF91EF91BF91AF919F918F9146
:100310007F916F915F914F913F912F910F900FBE01
:100320000F901F9018958091A30180588093A3018E
:1003300010929D01E2CFE0910401F09105014091FE
:100340009801509199019F01ADECBCEC0E946C1199
:10035000969587959695879596958795480F591FF9
:10036000509399014093980120919701AC01440F5B
:10037000551F880F991F880F991F880F991F480FC5
:10038000591FE41BF50B2E0F2093970180919701C5
:100390008B3008F452CF8091980190919901019689
:1003A0009093990180939801809197018A5080934E
:1003B000970143CF1F920F920FB60F9211242F93E4
:1003C0003F934F935F936F937F938F939F93AF93DD
:1003D000BF932091780030917900809193019091A2
:1003E0009401280F391F3093940120939301809139
:1003F00092018F5F809392018034E0F00024220FFD
:10040000331F001C220F331F001C232F302DABE4A1
:10041000B0E00E946C1129E09695879577956795D5
:100420002A95D1F76093950110929401109293014F
:1004300010929201BF91AF919F918F917F916F9197
:100440005F914F913F912F910F900FBE0F901F9092
:100450001895CF93DF93CDB7DEB728970FB6F894F2
:10046000DEBF0FBECDBF8EE4898388E98A831B82FD
:100470001C821D828FEF8E838FE08F8341E067E0C7
:10048000CE0101960E9424110E941C118111FCCF03
:100490008EE4898383E98A8380913A028B838091F9
:1004A0003B028C8341E064E0CE0101960E9424115E
:1004B0000E941C118111FCCF28960FB6F894DEBF64
:1004C0000FBECDBFDF91CF9108958091A3018064CD
:1004D0008093A30185B18C7F85B984B1836084B991
:1004E00086E08A95F1F700C02998289A86E08A95D7
:1004F000F1F700C00E9429020E942011882329F0F0
:100500008091A3018F7B8093A3010895CF93DF9304
:10051000CDB7DEB728970FB6F894DEBF0FBECDBFBC
:100520000E9429020E941C118111FCCF0E942011FF
:10053000811105C08091A30180648093A3018EE4A2
:10054000898388E88A83E7EEF3E086EC93E0AE01E6
:100550004D5F5F4F3191DC012D91CD012327DA01F1
:100560002D93AD01B3E0EC3EFB07A1F741E067E05E
:10057000CE0101960E94241128960FB6F894DEBF92
:100580000FBECDBFDF91CF910895CF93DF9300D001
:1005900000D0CDB7DEB78091A30186FF07C00F90D2
:1005A0000F900F900F90DF91CF9108950E941C1132
:1005B0008111FCCF0E9420118823B1F18EE4898340
:1005C00083E88A8340E062E0CE0101960E94241114
:1005D0008FE4898341E063E0CE0101960E942411FB
:1005E0000E941C118111FCCF63E0CE0101960E9494
:1005F000551181110CC08091A30180648093A301E7
:100600000F900F900F900F90DF91CF9108958A81F6
:100610008093D6018B818093D7010F900F900F901C
:100620000F90DF91CF9108958091A3018064809312
:10063000A301C4CF2F923F924F925F926F927F920D
:100640008F929F92AF92BF92CF92DF92EF92FF92E2
:100650000F931F93CF93DF9300D01F92CDB7DEB7D8
:1006600080E090E00E949D119FEF980F9E3F08F060
:10067000B9C18093A50183E090E00E949D11182FDD
:1006800082E090E00E949D11212F30E0382B21154F
:10069000310509F0A4C191E080E0909302018093BC
:1006A00003018FE190E00E949D118093060106E313
:1006B00012E020E1E22EF12CC7010E949D11F80109
:1006C00081938F01FFEFEF1AFF0A24E1E216F10494
:1006D00099F784E190E00E949D118093F30385E1F6
:1006E00090E00E949D118093F10386E190E00E94CA
:1006F0009D1180933C0280E290E00E949D118093C6
:100700003A0281E290E00E949D1180933B0282E2D6
:1007100090E00E949D118093C60383E290E00E94C6
:100720009D118093C70384E290E00E949D11809305
:10073000C80385E290E00E949D118093C90386E280
:1007400090E00E949D118093CA0388E190E00E948E
:100750009D118093000189E190E00E949D1180939A
:1007600001018AE190E00E949D1180936F0187E56D
:1007700092E09B838A830AE512E07BE5E72E72E034
:10078000F72EEFE38E2E912CF401E655F2404F0147
:10079000F0E4AF2EB12CC501865592405C01A1E476
:1007A000CA2ED12CF601E655F2406F01B2E46B2E51
:1007B000712CC301865592403C0183E4482E512C94
:1007C000F201E655F2402F0194E4292E312CC101AB
:1007D000865592401C0129C0EA81FB813283218326
:1007E0008A819B81840D951D0E949D11F801808353
:1007F0008A819B81820D931D0E949D11F701808348
:10080000F8019081981710F4F70190838A819B81F9
:1008100006969B838A830A5F1F4F96E0E90EF11CC0
:10082000EA81FB81E751F34091F18A819B81880D38
:10083000991D0E949D11EA81FB81319780838A81F5
:100840009B818A0D9B1D0E949D11EA81FB81808303
:10085000CF018C0D9D1D0E949D11282F8A819B81A7
:10086000860D971D29830E949D11298130E0322F2A
:100870002227280F311D203AF5E03F0708F4ACCFBE
:100880008FE995E0EA81FB8192838183A9CF47E6D6
:10089000E42E41E0F42E0FE511E0C12CDD24D394C9
:1008A000C6010E949D11F70181937F01C601089640
:1008B0000E949D11F80181938F01FFEFCF1ADF0A8B
:1008C00028E0C21621E0D20659F731E1C32E31E00B
:1008D000D32E00E111E0FF24F394F6013A9780EF64
:1008E000800F8083C8010E949D11F6013997982FCF
:1008F00092959F709083F60138978F709F2D01C05D
:10090000990F8A95EAF79083C80108960E949D1175
:10091000F6013797982F92959F709083F60136973E
:100920008F702F2D01C0220F8A95EAF72083C8010E
:1009300040960E949D11F6013597982F92959F70D1
:100940009083F60134978F709F2D01C0990F8A957F
:10095000EAF79083C80148960E949D11F6013397EB
:10096000982F92959F709083F60132978F702F2D5C
:1009700001C0220F8A95EAF72083C80180960E9461
:100980009D11F6013197982F92959F7090838F70EB
:100990009F2D01C0990F8A95EAF7F60190830F5FAA
:1009A0001F4FFBE0CF0ED11C083121E0120709F0E8
:1009B00094CF0F900F900F90DF91CF911F910F91D7
:1009C000FF90EF90DF90CF90BF90AF909F908F906F
:1009D0007F906F905F904F903F902F900895912F50
:1009E000832F5BCE83E08093A50163E080E090E0FD
:1009F0000E94A51140CECF93DF93CDB7DEB7A89765
:100A00000FB6F894DEBF0FBECDBF20E044E1BE01BB
:100A10006B5E7F4F89EF93E00E940F10811109C038
:100A2000A8960FB6F894DEBF0FBECDBFDF91CF9171
:100A300008954091A501BE016F5F7F4FCE0145969D
:100A40000E94BC0E882361F3833099F000F184305A
:100A500081F1853029F78A8D843599F1833401F746
:100A60008B8D843509F459C08E34D1F61092D8019B
:100A7000D7CFF894A89584B7877F84BF8091600012
:100A800088618093600088E080936000FFCF8130B0
:100A900039F0823029F60E941A038091A5018A83D9
:100AA0004B81BE016F5F7F4F8FEF93E00E94C70FB6
:100AB000B7CF89E48D878E8781E48F8782E4888B26
:100AC000EFCF809100018F3F19F09E898913A8CF45
:100AD0008E8D80939C018F898E30A0F08F8D8093B6
:100AE000EE0388A18093ED0389A18093EC038AA192
:100AF00090E0982F88272BA1820F911D90930501DC
:100B0000809304011092990110929801109297011C
:100B1000809101018093960183CF8C8D8093540244
:100B20008D8D8093550281E08093D8012FB7F89482
:100B3000809102019091030190939B0180939A010F
:100B40002FBF6ECFCF93DF9314BEA89588E10FB669
:100B5000F89480936000109260000FBE1092A40180
:100B60000E941A0310923E0210923D021092B703A7
:100B70001092B6031092400210923F021092B903F5
:100B80001092B80310924202109241021092BB03DD
:100B90001092BA0310924402109243021092BD03C5
:100BA0001092BC0387E480937C0086E380937A00F4
:100BB00010927B0010927E001092950180917A0035
:100BC000886D80937A00109299011092980125EF18
:100BD00033E060E572E0ABECB3E080E090E0E90187
:100BE00019929E01FB011192BF01FC01EE0FFF1F44
:100BF000AF0142545C4FEA0119821882AF0147529B
:100C00005E4FEA0119821882E80FF91FEE0FFF1FED
:100C1000E553FC4F128211821C9201961696843085
:100C20009105E9F6E6E5F2E080818F7B80833696D8
:100C3000D3E0E631FD07C1F71092E5011092F2030F
:100C40001092EF031092F4031092460210924502A4
:100C50001092E2011092E1011092D6011092D70198
:100C60001092D8011092E301109254021092E40104
:100C7000109255021092470210929601DF91CF9187
:100C80000895482F9FB7F89420914502309146026D
:100C90009FBF9091F40397FD14C09091EF03892FAB
:100CA000817090FD0EC0232B69F421E030E0042E0A
:100CB00001C0220F0A94EAF720682093F40381E030
:100CC000089580E008950F931F93CF93DF930E94C0
:100CD000C5028091D7018F708093D7018091D80190
:100CE000811120C086ED91E0C4E5D2E0A1EAB1E037
:100CF0000FE911E052E0FC012191CF016881262724
:100D0000F80140813C91342732233D9340954223A2
:100D100041938F012095232B242B2095262729935F
:100D2000515049F760915502462F50E0E0E5F2E05E
:100D300080E090E071E09A01082E02C03595279579
:100D40000A94E2F720FF45C0708301963196843003
:100D5000910589F78091540287FD56C01092F203E5
:100D60009091F50380FF49C0916081FF42C092607D
:100D70009093F5039091F60382FF37C091609093B2
:100D8000F6039091F70383FF2EC0916084FF27C084
:100D900092609093F7039091F80385FF1CC09160D7
:100DA0009093F80386FF34C09091EF039160909385
:100DB000EF039091E301981711F191E090934702AE
:100DC0008093E3016093E401DF91CF911F910F9134
:100DD00008951082BACF9E7F9093F803E3CF9D7F52
:100DE0009093F703D8CF9E7FD1CF9E7F9093F60349
:100DF000C8CF9D7F9093F503BDCF9E7FB6CF9091D6
:100E0000E4019613DACFDCCF91E09093F203A8CF00
:100E10002FB7F8948091E1019091E2012FBF2091CA
:100E2000E30126FD0DC0892B29F48091EF038E7F0D
:100E30008093EF038091540260915502922FBBCFB3
:100E40002FB7F89480913C02FAE08F9FC0011124E3
:100E50009093E2018093E1012FBF9091E301809193
:100E6000540260915502A7CF0F931F93CF93DF9346
:100E70000DE312E0A8E4B2E0E9E4F2E020E030E0C3
:100E800060E074E0E801899199918E012E5F3F4FF7
:100E90008130910510F0049760F07C9370836F5F50
:100EA00012963296643071F7DF91CF911F910F91B6
:100EB0000895862F869590E0880F991F805B9D4F3F
:100EC000EC01888181110EC0C90189599E4FAC0186
:100ED00042505109EA0148814C930197EC01888105
:100EE0008083DDCFC901815A9E4FF1CF8F929F92AF
:100EF000AF92BF92CF92DF92EF92FF920F931F9328
:100F0000CF93DF93D1E18D2ED1E09D2E0CC088814F
:100F10008F298883BBE08B0E911CE9E68E16E1E0F9
:100F20009E0609F46EC0D4011297FC90D401179765
:100F30004C91D4011697DC90D40115972C91D401D3
:100F40001497EC90D40119976C91D4011897CC9018
:100F5000D40111970C91D401AC901397CC91D0E0AF
:100F6000C951DC4F9F2D909588818923888350E05B
:100F700049515C4F9D2D9095FA0180818923808392
:100F800030E029513C4F9E2D9095D9018C918923B9
:100F90008C9370E069517C4F9C2D9095FB01808172
:100FA0008923808310E009511C4FBA2CB094D801DA
:100FB0008C91B822BC92D4011A97AC91B0E0A85B96
:100FC000BD4F8C9190E08830910508F0A0CF8C5CEB
:100FD0009F4FFC010C9487118091A30187FF9ACF4A
:100FE000DA018C918D298C93F90180818E2980837F
:100FF000BBE08B0E911CE9E68E16E1E09E0609F03F
:1010000092CFDF91CF911F910F91FF90EF90DF90E2
:10101000CF90BF90AF909F908F900895DB018C91FF
:101020008C298C9377CFBA28D801BC9273CF80914A
:10103000A30187FF6FCF6BCF8091A30187FF6ACF9A
:10104000FB0180818C29808365CFCF93DF93CDB75F
:10105000DEB769970FB6F894DEBF0FBECDBF0E9412
:10106000A20516BC82EC87BD1092F00310929B0182
:1010700010929A0182E084BD85E085BD80916E006A
:10108000826080936E0044E066EE71E08FEF93E043
:101090000E94A90F48E066E173E089EF93E00E94A7
:1010A000A90F0E94630D78940E940D110E946502A1
:1010B00001E010E096E0E92EF12C25E0822E912C43
:1010C00034E0A32EB12C43E0242E312CA89589EFD7
:1010D00093E00E94BF0F8111EBC28091A30186FDB6
:1010E000D4C28091A30180FDDBC280919C0180FF6E
:1010F00030C081FD2EC080919801909199010A978E
:1011000008F44CC24FB7F89420919801309199019E
:10111000ADECBCEC0E946C11BC01769567957695A0
:1011200067957695679520919801309199018AE0AD
:10113000689F201931091124309399012093980157
:101140004FBF8CEE93E00E94B30080919C0180FD24
:1011500023C28091E501882349F08091F203811137
:10116000B9C28091EB0380628093EB03A0E5B2E00B
:10117000E3EEF3E080E090E0C12C4D912081241754
:1011800039F09801082E01C0220F0A94EAF7C22A0A
:10119000419301968430910581F790E0D12CA89578
:1011A000292F30E0A901440F551FFA01E35CFD4FE0
:1011B000608171816730710508F01BC1FB01E45C3F
:1011C000FF4F0C94871190FF81C28FEF890F61E070
:1011D000690F7FB7F89490E02091F303BAE02B9F5A
:1011E00090011124FC01EE0FFF1FE752FE4F3183E7
:1011F00020837FBFFC01ED51FC4FDC01A05BBD4FA4
:101200008C918083FA01E35CFD4FF182E082962F9E
:10121000943029F6EDE3F2E0A6EBB3E040E0808104
:1012200091812D913C9111978217930771F0243091
:10123000310551F08430910509F459C0215031092C
:101240002230310508F44FC041E08D939D933296D2
:1012500062E0E534F60719F74F8B0E94340780915E
:10126000A3014F8981FD27C28FB7F89420919A017D
:1012700030919B018FBF809102019091030128174B
:10128000390730F4411104C080914702882329F0C6
:1012900080910104882309F444C28FEF93E00E94F7
:1012A000BF0F882309F412CF0E94810D882309F40F
:1012B0000DCF84E1D82E03C0DA9409F407CF0E9441
:1012C000410E811103CFA89587E893E10197F1F7CB
:1012D00000C0000089EF93E00E94BF0F882361F3F4
:1012E0000E94FB04E9CF8630910509F0ADCF2FB7FE
:1012F000F8948091F1033AE0839FC0011124909308
:101300004602809345022FBF8081918141E09DCFAD
:101310008FB7F894FA01E20FF31FEE0FFF1FE553AA
:10132000FC4F618172818FBFA901440F551FFA01E3
:10133000E20FF31FEE0FFF1FE553FC4F8081882360
:1013400009F4D0C1672B09F054C0FA01E35CFD4FEA
:10135000918280829F5F5CCF8FB7F894FA01E20F91
:10136000F31FEE0FFF1FE553FC4F618172818FBFAA
:10137000A901440F551FFA01E20FF31FEE0FFF1FE3
:10138000E553FC4F248130E08381281B3109F901AA
:10139000EE0FFF1F220F331F220F331F220F331FA9
:1013A000E20FF31FE617F70720F1FA01E35CFD4FA8
:1013B000B182A0829F5F2CCF1092F403FA01E20F5A
:1013C000F31FEE0FFF1FE553FC4F8081882361F070
:1013D000108285818295880F880F807C809520916E
:1013E000EB0382238093EB03FA01E35CFD4F118250
:1013F00010829F5F0DCFB601092E02C075956795CB
:101400000A94E2F760FDC1C0B90190FF80C161504C
:101410007109D80102C0AA0FBB1F6A95E2F7BD018E
:101420006C217D21672B09F0B0C0FA01E20FF31F98
:10143000EE0FFF1FE553FC4F808181114CC280915C
:10144000EF0380FDB2CFF901EB50FC4F6081F90151
:10145000E05BFD4F8081813009F43BC281E086234F
:1014600041F68FB7F894F901EA5CFD4F6081AAE07C
:101470006A9FB0011124FA01E254FC4F718360832A
:101480008FBFF901EE0FFF1FE35CFD4F22E030E05C
:10149000318320839F5FBCCEB601092E02C07595B3
:1014A00067950A94E2F760FF05C0FA01E752FE4F24
:1014B00011821082F901EB50FC4F8081F901E05B51
:1014C000FD4F6081613009F413C161E0862359F456
:1014D000FA01E20FF31FEE0FFF1FE553FC4F80816F
:1014E000882309F486CFFA01E752FE4F208131812B
:1014F000232B09F07ECF892F4F8B5E8B9D8B0E9413
:1015000041064F895E899D89882309F472CFFA01CB
:10151000E35CFD4F118300839F5F7ACE8FB7F89411
:10152000FA01E254FC4F0190F081E02D8FBFB6012B
:10153000092E02C0759567950A94E2F760FD25C0F3
:10154000B90190FFDAC061507109D80102C0AA0F39
:10155000BB1F6A95E2F7BD016C217D21672BA9F4C1
:101560008091EF0380FD21CFD901AB50BC4F6C912E
:10157000D901A05BBD4F8C91813009F4A8C181E0F5
:10158000862329F6EF2B09F034CFFA01E35CFD4FF7
:10159000F182E0829F5F3CCE81FDDBCD80919601A0
:1015A000882309F4D6CD2091EE038091ED039CE3CE
:1015B000299F90011124280F311DC0906F01D12C5B
:1015C0006090E501E6E5F2E0ABE5B2E0B98FA88F07
:1015D00055245394A90140565A4F14C0BC016C0DB8
:1015E0007D1D6217730798F0708077FC1CC03696DB
:1015F000888D998D0696998F888F93E0E631F9074B
:1016000009F478C0828193812817390738F7481781
:10161000590728F08C0D9D1D8417950728F78081A8
:101620008F7B8083E4CF76FCE2CF888D998D049701
:10163000DC016C9170E0CB01880F991F860F971F1A
:10164000880F991F85539C4FDC016C916111CFCF9E
:101650005C92A88DB98D6C91DC0113966C93688DAA
:10166000798D61507109DB016C91DC0114966C93EA
:101670001497672D637015966C9372FE02C06624F2
:101680006394872D80648083B2CF80919E018F5FA9
:1016900080939E010E9465028091A30180FF25CD69
:1016A0000E9463068091A3018E7F8093A3011DCDCC
:1016B0000E94FB0412CD0E9476070E948602809150
:1016C000A3018D7F8093A3014F89CECD81E0890F47
:1016D000682F7FCD8091EB038F7D8093EB03109279
:1016E000E50144CD8091EF0380FF2FCE9F5F90CD29
:1016F00062E0ECCE6092E5012CCD6F5F7F4FD801A8
:1017000002C0AA0FBB1F6A95E2F7BD0125CF6F5F2C
:101710007F4FF80102C0EE0FFF1F6A95E2F7BF018D
:101720007FCE109247028FB7F89410929B011092CF
:101730009A018FBF8091A5018A838FEF898384E10D
:101740008B8383E58E83809154028F838091550231
:1017500080FFBBC08D7F82FFB6C0877F8887E8E4AB
:10176000F2E080E090E0412C512C3201419150E0B8
:1017700060E070E0082E04C0440F551F661F771FFD
:101780000A94D2F7442A552A662A772A0396883182
:10179000910561F769865A864B864091EB03407C40
:1017A00009F04062EBECF3E080E090E0208122233E
:1017B00039F09801082E01C0220F0A94EAF7422B53
:1017C000019636968430910589F74C8780913F02C7
:1017D0008F7090913D029295907F892B8D8780919B
:1017E00043028F70909141029295907F892B8E8752
:1017F0008FB7F89420914502309146028FBF2B5F3E
:101800003F4FADECBCEC0E946C1196958795969578
:101810008795969587958F878FB7F8942091E101EA
:101820003091E2018FBF2B5F3F4FADECBCEC0E94CB
:101830006C11969587959695879596958795888B43
:1018400080E090E050E04FB7F894FC01EE0FFF1FEE
:10185000E752FE4F208131814FBF232B39F0980191
:10186000082E01C0220F0A94EAF7522B0196843009
:10187000910549F7598B80E090E050E04FB7F8941C
:10188000FC01EE0FFF1FE254FC4F208131814FBF5E
:10189000232B39F09801082E01C0220F0A94EAF791
:1018A000522B01968430910549F75A8B1B8A8091FF
:1018B00095018C8B4B81BE016F5F7F4F8FEF93E063
:1018C0000E94C70FEACC886049CF826044CF82E093
:1018D00057CE82E0C4CD8FB7F894FA01E20FF31F20
:1018E000EE0FFF1FE553FC4F44816AE0469FA001C5
:1018F0001124528341838FBFA901440F551FFA0160
:10190000E20FF31FEE0FFF1FE553FC4F258180E42C
:10191000289F900111248091EB03822B8093EB038D
:10192000FA01E35CFD4F318220829F5F71CCF89415
:10193000882399F05A9890E020E006C0933020F078
:10194000489921E028130BC035E83A95F1F70000DB
:101950009F5F9A3099F780E008955A9AECCF5A9891
:101960005198789481E008951F920F920FB60F92CC
:1019700011242F933F934F935F936F937F938F9394
:101980009F93AF93BF93EF93FF9381E08093D20136
:101990008091C000887181F5E091BD0181E08E0FDA
:1019A0008093BD018091C600F0E0E254FE4F808339
:1019B0008091BD01863030F04091C0018091BD0121
:1019C000481709F18091BD01853128F08091BD0152
:1019D00081508093BD01FF91EF91BF91AF919F9195
:1019E0008F917F916F915F914F913F912F910F90C8
:1019F0000FBE0F901F9018958091C6008093BD0177
:101A00001092BD01E8CF1092BD01453108F044E1CC
:101A10006EEB71E089EF93E00E94C70F1092D20144
:101A2000DACF1F920F920FB60F9211248F93EF937C
:101A3000FF935A98E1ECF0E08081877180688083A1
:101A400086E08093A701FF91EF918F910F900FBED9
:101A50000F901F9018951F920F920FB60F9211249E
:101A60008F939F93EF93FF93E091A80181E08E0FF6
:101A70008093A801F0E0E755FE4F80818093C60077
:101A80008091A801843178F49091AB018091A801F4
:101A9000981749F0FF91EF919F918F910F900FBE92
:101AA0000F901F9018958091C00080648093C000B3
:101AB0008091C1008F7D8093C1008091C1008064BE
:101AC0008093C100E7CF529A5A988AB18C7F8AB925
:101AD0001092A8011092D20126E02093A701209332
:101AE000A60185E190E09093C5008093C400109218
:101AF000C000E1ECF0E010822093C20088E980830E
:101B00000895CF93DF938FEF93E00E94BF0F882358
:101B100009F450C0C091C100C07629F0C1E08C2FFB
:101B2000DF91CF91089521E044E169EA71E08FEF00
:101B300093E00E940F108091AB01853008F46DC0D6
:101B4000D091AA018091AB01882309F498C080E06C
:101B500090E0C0E02DEF2C0F223038F0EC2FF0E0B9
:101B6000E755FE4F60810E947C0ECF5F2091AB0154
:101B7000C21780F38093AC019093AD011092D20113
:101B80003091A7018091A6012091AA01EFE0F7E230
:101B90003197F1F700C000009091D201992309F428
:101BA00041C08091A701882309F4B8CF8150809368
:101BB000A701B4CFC0E08C2FDF91CF91089580E0D2
:101BC0000E94970C8111EDCFC8E08D2F81700E948B
:101BD000970CD6958111E5CFC150B9F781E00E94ED
:101BE000970C8111DECF81E00E94970C8111D9CF33
:101BF0001092A801F89451988091C1008860809358
:101C0000C1008091C00080648093C0005A9A809186
:101C1000C10080628093C10078948FEF93E00E94AE
:101C200066107DCF2F702A5E90E0830F911D982F54
:101C3000990F990F980F290FF8948BB1897F8BB961
:101C4000519A8091C100877F8093C1001092BD019D
:101C50007894222309F4B3CF80E004C08F5F821709
:101C600009F4ADCFF5E8FA95F1F700004899F6CF01
:101C700051988091A701882309F450CF97CF90E025
:101C800079CF9091D20181E0911180E008951F9366
:101C9000CF93DF93EC013A81332349F180E090E068
:101CA00010E02DEF210F223038F0FE01E10FF11D81
:101CB00060810E947C0E3A811F5F131790F3292FD9
:101CC00030E04C8150E04217530729F080E0DF916B
:101CD000CF911F910895AC0155272B8130E081E011
:101CE0004217530799F7DF91CF911F91089520E094
:101CF00030E080E090E0E5CF71E0713021F1292FF4
:101D00002295592F5295507F482F4295407F262784
:101D10002F7030E0F901EF57FE4F982F92959F708A
:101D2000952B80819827F901EF58FE4F80818427F9
:101D3000723001F5292F30E0322F2227A901480FF8
:101D4000511DCA010895492F46279295907F282F4B
:101D50002295207F42954F7050E0FA01EF57FE4FD9
:101D600082958F70982B80819827FA01EF58FE4F4B
:101D7000808182277F5FC1CF8F929F92BF92CF9247
:101D8000DF92EF92FF920F931F93CF93DF9300D0D8
:101D90001F92CDB7DEB74C01FC018181841731F071
:101DA000F40180818F3F91F0481781F080E00F901F
:101DB0000F900F90DF91CF911F910F91FF90EF90B7
:101DC000DF90CF90BF909F908F900895C4014B8378
:101DD00069837A830E94470E4B8169817A818823C7
:101DE00029F3F4018581813409F44FC0873559F016
:101DF000823509F46CC0863509F457C0883509F47A
:101E00004EC085E0D4CFF40180818F3F09F449C0F2
:101E1000F4018281883050F28181FB01808341830B
:101E2000F401B280F9EFBF0E2DE02B1510F49DE008
:101E3000B92E87E08B0DFB01828387E78583F40150
:101E40008681FB018683BB20F1F07401F7E0EF0E81
:101E5000F11C6B0127E0C20ED11C00E010E0F40180
:101E60008681F70160819801280F311DC9010E9408
:101E7000A511F70181917F01F60181936F010F5F39
:101E80001F4F0B1560F382E092CF8181FB018083AD
:101E9000418386E0828381E6858381E088CF83E089
:101EA00086CF86818111B4CF81CFF4018181FB017E
:101EB0008083418380E1828386E78583168217824F
:101EC0001086118681E08287138684E070CFF4014A
:101ED0008181FB0180834183F4018281883048F154
:101EE000D780DD2031F1FDE0FD1510F48DE0D82E16
:101EF00087E08D0DFB01828382E78583F401868173
:101F0000FB0186837B01F7E0EF0EF11C00E010E09F
:101F1000F40186819801280F311DC9010E949D118D
:101F2000F70181937F010F5F1F4F0D1588F381E04B
:101F30003ECF88E0DD24D394DDCFFC012FB7F894A9
:101F400080819181891B65810E947B11892F2FBF20
:101F50000895CF93FC01CB01CFB7F89474836383CA
:101F6000458311821082128224E1429FA001112434
:101F700060E070E00E949611CFBFCF910895FC0100
:101F80002281222311F0858108950C949D0FEF92F8
:101F9000FF920F931F93CF93DF93EC018A818823E5
:101FA00041F080E0DF91CF911F910F91FF90EF9072
:101FB0000895453190F588810B811C8194E1899FBA
:101FC000000D111D1124E42EF12CA701C8010E945F
:101FD0008D1144E150E04E195F0960E070E0C801E6
:101FE0008E0D9F1D0E94961188818F5F88839D8131
:101FF000891788F49FB7F89428818981281302C033
:1020000081E08A839FBF81E0DF91CF911F910F9183
:10201000FF90EF9008951882EDCF44E1CCCFCF929E
:10202000DF92EF92FF920F931F93CF93DF93EC0118
:102030007B01D42EC22E042F10E0A80160E070E0D6
:10204000C7010E9496118A818823E1F18D8188233E
:1020500021F16B817C818981FB0194E1899FE00DF5
:10206000F11D11248281D81608F5898194E1899F98
:10207000600D711D1124A801C7010E948D11C110AE
:102080001FC08FB7F89499819F5F99832D81921714
:1020900008F019821A828FBF81E0DF91CF911F91E2
:1020A0000F91FF90EF90DF90CF9008958981FB0111
:1020B00094E1899FE00DF11D1124028110E0D5CF3C
:1020C00081E0EBCFCE010E949D0FC1CFCF93DF9374
:1020D000EC018A81882399F08D81882359F08FB78C
:1020E000F89499819F5F99832D81921730F41A8219
:1020F0008FBF81E0DF91CF9108951982F8CFCE0193
:102100000E949D0FEACF1F920F920FB60F921124DB
:102110002F933F938F939F93AF93BF93EF93FF932F
:102120008091B90090E0FC013897E135F105A0F00D
:102130008091B9008093700184E08093BC00FF918E
:10214000EF91BF91AF919F918F913F912F910F9000
:102150000FBE0F901F901895ED5BFF4F0C948711E9
:10216000E091D40181E08E0F8093D401F0E0809162
:10217000BB00EB5FFB4F80832091D40130E0809166
:10218000D50190E0019728173907CCF485EC8093AE
:10219000BC00D5CF1092D4019091D4018091D5018B
:1021A000981788F08091D30181608093D30180914A
:1021B000D30181FFC1CF84E98093BC00C0CF85E803
:1021C0008093BC00BCCFE091D40181E08E0F80935E
:1021D000D401F0E0EB5FFB4F80818093BB0085E88A
:1021E0008093BC00ACCF8091B9008093700184E9EA
:1021F0008093BC00A4CF85EA8093BC00A0CFE0917F
:10220000D401F0E08091BB00EB5FFB4F80838091B5
:10221000D30181608093D301CECF1092D30188EF98
:102220008093700181E18093B8008FEF8093BB00B1
:1022300084E08093BC0008958091BC008170089573
:102240008091D30181700895CF93DF93C42F2091A3
:10225000BC0020FDFCCFDFB7F8946093D501FC01F2
:102260002081209305042091050420FD0BC0462FFA
:1022700050E041505109BC016F5F7F4F86E094E010
:102280000E948D1188EF809370011092D301CC23AE
:1022900029F08091D30182608093D301DFBF85EA6A
:1022A0008093BC00DF91CF910895CF932091BC0023
:1022B00020FDFCCFCFB7F8942091D30120FF06C0BA
:1022C000462F50E065E074E00E948D11CFBF8091F1
:1022D000D3018170CF910895A29FB001B39FC00137
:1022E000A39F700D811D1124911DB29F700D811D42
:1022F0001124911D0895991B79E004C0991F961728
:1023000008F0961B881F7A95C9F780950895EE0FFF
:10231000FF1F0590F491E02D0994FB01DC0102C040
:1023200001900D9241505040D8F70895DC0101C052
:102330006D9341505040E0F70895F999FECF92BD5A
:1023400081BDF89A992780B50895262FF999FECF77
:102350001FBA92BD81BD20BD0FB6F894FA9AF99AC2
:0A2360000FBE01960895F894FFCF18
:10236A00FF320A000A000500000100020002000410
:10237A0000040100080010001000200020020040A4
:10238A00008000800101010103010201040104012E
:10239A000801080401100120012001400140050143
:1023AA008002010201020202020602040208020875
:1023BA00021002100702200240024002800280043A
:1023CA0002040204020402010401040104010401DA
:1023DA00F800010302070604050E0F0D0C09080A8E
:1023EA000B00A0E04060C08020C0602080A00040B8
:0223FA00E00001
:00000001FF
